:100000000C9434000C94230D0C94500D0C9451005E
:100010000C9451000C9451000C9451000C9451001C
:100020000C9451000C9451000C9451000C945F04FA
:100030000C9451000C9451000C9451000C945100FC
:100040000C9451000C9451000C9451000C945100EC
:100050000C9451000C9451000C9451000C945100DC
:100060000C9451000C94510011241FBECFEFD8E026
:10007000DEBFCDBF11E0A0E0B1E0EAEEFDE102C0DD
:1000800005900D92AA3AB107D9F727E0AAEAB1E0A4
:1000900001C01D92AE3EB207E1F70E94EC000C9445
:1000A000F30E0C9400002D980895CF93DF93CDB7F5
:1000B000DEB764970FB6F894DEBF0FBECDBF1C014C
:1000C0001A8219821C821B821E821D8286E0E4E055
:1000D000F1E0DE01179601900D928A95E1F786E036
:1000E000EAE0F1E0DE011D9601900D928A95E1F7BC
:1000F0000E945B099C8B8B8B410126E0820E911C38
:1001000071018E010F5F1F4F5E0137E0A30EB11C1E
:100110006E018DE0C80ED11C20E040E050E0B80137
:10012000F701819191917F010E94FF06813099F53D
:100130000E942102F80160807180F50140805180A9
:1001400025B181E090E04614570414F080E090E07F
:10015000880F991F82959295907F9827807F982786
:10016000822B85B9F601808191810E945802461444
:1001700057042CF029E131E0822F932F04C0E0E1F5
:10018000F1E08E2F9F2F0E9458026CED75E0CE019A
:1001900043960E94A40A0E5F1F4FF2E0AF0EB11CFF
:1001A00022E0C20ED11CE814F90409F0B5CFA8CFA3
:1001B0000E946702ECE7F0E0808180648083EAE7D8
:1001C000F0E080818768808380E284B915B884E09C
:1001D0008AB91BB817B80895CF93DF9300D000D029
:1001E00000D0CDB7DEB70E94D800F89441E050E0CF
:1001F00063E570E080E090E00E94000DFE01319622
:1002000086E0DF011D928A95E9F78F017E01B7E054
:10021000EB0EF11C40E062E083E00E943206F80140
:10022000819391938F01EE15FF05A1F791E029814C
:100230003A81232B09F490E081E02B813C81232B30
:1002400009F480E0892391E02D813E81232B09F47C
:1002500090E08923B9F1A12CB12CC12CD12CE12C37
:10026000F12C04E09E012F5F3F4F40E051E064E439
:1002700071E085E791E00E9418089E012D5F3F4FD5
:1002800040E051E069E571E087E991E00E941808DB
:100290009E012B5F3F4F40EF50E06DE671E08EEC2A
:1002A00091E00E94180803E09E012F5F3F4F40E05D
:1002B00051E068E871E085E590E00E9418087894C4
:1002C0000E942609FFCFECE7F0E09081892B808324
:1002D000EAE7F0E0808180648083808186FDFDCF45
:1002E00080917800909179000895CF93DF9300D0AA
:1002F00000D0CDB7DEB78C010E945B099A83898359
:1003000082E00E9463019C838B8320E040E050E008
:10031000BE016D5F7F4FF801808191810E945E0672
:1003200060ED77E0CE0101960E94A40AE9CFCF9359
:10033000DF9300D000D000D0CDB7DEB78C010E9493
:100340005B099A83898383E00E946301BC01990F52
:10035000880B990B0E94F10D26EF38E24CE950E42E
:100360000E947D0E20E030E040E251E40E947D0DCD
:100370006B837C838D839E8320E040E050E0BE0150
:100380006D5F7F4FF801808191810E945E0660ED74
:1003900077E0CE0101960E94A40AD5CFCF93DF93D8
:1003A00000D000D0CDB7DEB78C011A8219820E942E
:1003B0005B099C838B8384E00E9463019A83898319
:1003C00020E040E050E0BE016F5F7F4FF801808188
:1003D00091810E945E0660ED77E0CE0103960E9457
:1003E000A40AE9CF9FEF9AB997B941989BB19F7042
:1003F000282F207F922B9BB9409AE9EFF0E03197AC
:10040000F1F700C000004098E3EFF1E03197F1F719
:1004100000C000002BB12F70F0E18F9FC0011124AC
:10042000822B8BB9409A83EF91E00197F1F700C0DE
:1004300000004098EBE5F4E43197F1F700C00000CC
:10044000089581E00E94F20180E80E94F20108957F
:1004500090EF9AB993E097B9419A9BB19F70282F7A
:10046000207F922B9BB9409AE9EFF0E03197F1F7AA
:1004700000C000004098E9EFF0E03197F1F700C0CC
:1004800000002BB12F70F0E18F9FC0011124822B4F
:100490008BB9409A89EF90E00197F1F700C0000016
:1004A0004098E3EFF1E03197F1F700C000000895C4
:1004B000CF93DF93EC018881882331F021960E944D
:1004C000280289918111FBCFDF91CF91089583E3B9
:1004D0000E94F20182E30E94F20188E20E94F2018E
:1004E0008CE00E94F20186E00E94F20181E00E940D
:1004F000F2010895FC010396928381832FEF3FEF71
:10050000348323839683858390878783108208951D
:10051000FC01118610860895CF93DF939C01FB01A7
:10052000DC011196CD91DC911297D383C2838C812B
:100530009D81958384838C819D81DC0113967C93BE
:100540006E9312977D836C8331872087F9018081B8
:100550008F5F8083DF91CF910895CF93DF93EB017D
:10056000488159814F3F2FEF520721F4FC01A781A9
:10057000B0850DC0DC01139601C0DF011296ED912C
:10058000FC9113972081318142175307B0F71296DF
:10059000ED91FC911397FB83EA83D583C483BD83DC
:1005A000AC831396DC93CE93129799878887FC01CE
:1005B00020812F5F2083DF91CF910895CF93DF9328
:1005C000FC01A085B185C281D381848195819D8301
:1005D0008C83C481D581828193819B838A83119688
:1005E0008D919C911297E817F90731F484819581D8
:1005F00012969C938E931197118610868C91815040
:100600008C93DF91CF91089531E1FC0130833197D4
:1006100022E220833197A3E3A0833197608331974F
:10062000708331971082319760E860833197108230
:10063000319762E06083319763E06083319764E0D3
:100640006083319765E06083319766E0608331971E
:1006500067E06083319768E06083319769E0608389
:10066000319760E1608331973083319732E1308395
:10067000319733E13083319734E13083319735E17D
:100680003083319736E13083319737E130833197CA
:1006900038E13083319739E13083319730E230836C
:1006A000319731E2308331972083319723E22083E1
:1006B0003197408331975083319726E220833197D9
:1006C00027E22083319728E22083319729E2208393
:1006D000319720E32083319721E320838697089583
:1006E000109289008CE7809388008BE080938100D2
:1006F000EFE6F0E0808182608083A091E807B0910E
:10070000E907CD91CDBFDD91DEBFFF91EF91DF9184
:10071000CF91BF91AF919F918F917F916F915F9199
:100720004F913F912F911F910F91FF90EF90DF908C
:10073000CF90BF90AF909F908F907F906F905F9081
:100740004F903F902F901F900F900FBE0F900895E5
:1007500081E008950F920FB6F8940F921F92112422
:100760002F923F924F925F926F927F928F929F92C1
:10077000AF92BF92CF92DF92EF92FF920F931F93AF
:100780002F933F934F935F936F937F938F939F9399
:10079000AF93BF93CF93DF93EF93FF93A091E807BD
:1007A000B091E9070DB60D920EB60D920E94230B83
:1007B000A091E807B091E907CD91CDBFDD91DEBFF3
:1007C000FF91EF91DF91CF91BF91AF919F918F9169
:1007D0007F916F915F914F913F912F911F910F9159
:1007E000FF90EF90DF90CF90BF90AF909F908F9051
:1007F0007F906F905F904F903F902F901F900F9041
:100800000FBE0F9008950F920FB6F8940F921F929B
:1008100011242F923F924F925F926F927F928F920C
:100820009F92AF92BF92CF92DF92EF92FF920F937F
:100830001F932F933F934F935F936F937F938F9368
:100840009F93AF93BF93CF93DF93EF93FF93A091C9
:10085000E807B091E9070DB60D920EB60D920E9411
:10086000650981110E94230BA091E807B091E90767
:10087000CD91CDBFDD91DEBFFF91EF91DF91CF91A3
:10088000BF91AF919F918F917F916F915F914F91A8
:100890003F912F911F910F91FF90EF90DF90CF909C
:1008A000BF90AF909F908F907F906F905F904F9090
:1008B0003F902F901F900F900FBE0F9008950E94B1
:1008C000030418950F931F93CF93DF93EC010E94BD
:1008D00055098091AA0181111DC0EFEAF1E084EB76
:1008E00091E09183808313821282EBEAF1E08BED39
:1008F00095E09383828311821082A3EBB1E014967A
:100900009C938E9313971296FC93EE93119781E02C
:100910008093AA01209709F45FC09E012C5F3F4F8E
:100920002396CA3DD54008F05AC0E091AF01F0913E
:10093000B001AFEAB1E002C0DF01FC018281938126
:100940008217930720F4808191810097A9F7C1E075
:10095000EB3AFC0709F446C0CD91DC9111978E016A
:100960000C5F1F4F808191818D939C938281938135
:10097000821B930B8930910510F1BF01620F731F29
:10098000DB0113969C938E931297338322831296E6
:100990004D915C9113978FEA91E001C0CD01EC017C
:1009A000A881B98112962D913C9113972417350790
:1009B000A8F3EB01B983A883DC016D937C9380914C
:1009C00000019091010122813381821B930B90934E
:1009D00001018093000108C000E010E005C000E0C4
:1009E00010E002C000E010E00E94220AC801DF917E
:1009F000CF911F910F9108950F931F93CF93DF9382
:100A0000009741F1EC018C01045011090E94550935
:100A1000F80142815381AFEAB1E001C0DF01ED91FD
:100A2000FC9111972281338124173507B8F324975D
:100A3000F983E8830D931C9320910001309101010B
:100A40008A819B81820F931F909301018093000103
:100A50000E94220ADF91CF911F910F9108951F9359
:100A6000CF93DF93EC01142F4C8D41110CC0888182
:100A70009981892B09F045C08A819B810E94AE0C27
:100A80001B821A8245C0111117C050E08C819D81D4
:100A90000E94EA0E2C8D8C819D81820F911D9D8379
:100AA0008C832A813B818217930768F18881998121
:100AB0009D838C8380E02CC050E08E819F810E94BA
:100AC000EA0E8C8D90E09195819591092E813F8160
:100AD000280F391F3F832E834881598124173507FA
:100AE00030F42A813B81820F931F9F838E831230C3
:100AF00061F48A8D882359F08A8D81508A8F80E035
:100B000007C080E005C080E003C080E001C080E055
:100B10009A8D9F5F9A8FDF91CF911F910895FC016D
:100B2000448D4423A9F050E026813781240F351FDE
:100B300037832683828193812817390720F08081AB
:100B4000918197838683CB01668177810E94EA0E2B
:100B500008950F931F93CF93DF93EC010FB6F89492
:100B60000F928E8D1816BCF48989811105C013C0AF
:100B70008989811104C00FC08E010F5E1F4FC8010B
:100B80000E94BC0B81110E94480C8E8D81508E8F6B
:100B90008E8D18166CF38FEF8E8F0F900FBE0FB6E1
:100BA000F8940F928D8D1816BCF48885811105C0BC
:100BB00013C08885811104C00FC08E01085F1F4FCC
:100BC000C8010E94BC0B81110E94480C8D8D815080
:100BD0008D8F8D8D18166CF38FEF8D8F0F900FBE4C
:100BE000DF91CF911F910F910895CF93DF93EC0187
:100BF0000FB6F8940F92488159812C8D30E07B8D8F
:100C0000729FC001739F900D1124FA01E80FF91F24
:100C1000FB83EA831A8E5D834C83821B930B840FC4
:100C2000951F9F838E838FEF8D8F8E8F61110CC0E8
:100C30008885882389F0CE0108960E94BC0B8130FC
:100C400059F40E94AA0308C0CE0108960E947A02B5
:100C5000CE0141960E947A020F900FBE81E0DF9193
:100C6000CF9108950F931F93CF93DF93082F162FE3
:100C70006623B9F0869FC001112480960E94620409
:100C8000EC01009721F414C0D983C88303C04F96A8
:100C9000998388830B8F1C8F61E0CE010E94F5053C
:100CA00007C08FE190E00E946204EC01892B61F79C
:100CB000CE01DF91CF911F910F9108959F92AF9236
:100CC000BF92CF92DF92EF92FF920F931F93CF9339
:100CD000DF9300D000D01F92CDB7DEB78C016B013F
:100CE0005D834C83A22EB12C992493947C0188E0DF
:100CF000E80EF11C0FB6F8940F92F801928D838DD7
:100D0000981718F0F2E0AF1219C04A2DB601C801C9
:100D10000E942F05F8019189992349F0C801419655
:100D20000E94BC0B813031F40E94AA0303C08111E0
:100D30000E94AA030F900FBE81E050C08C819D815C
:100D4000892B21F40F900FBE80E048C0B11005C080
:100D5000CE0101960E94040CB92C0F900FBE0E9488
:100D600055090FB6F8940F92F801858D8F3F09F45D
:100D7000158EF801868D8F3F09F4168E0F900FBEE9
:100D8000BE016C5F7F4FCE0101960E940F0C811156
:100D90001FC00FB6F8940F92F801928D0F900FBEFE
:100DA000838D98130FC06C817D81C7010E94900BC9
:100DB000C8010E94A9050E94220A81119BCF0E94AE
:100DC000AA0398CFC8010E94A9050E94220A92CFC7
:100DD000C8010E94A9050E94220A80E00F900F908E
:100DE0000F900F900F90DF91CF911F910F91FF9077
:100DF000EF90DF90CF90BF90AF909F9008959F921B
:100E0000AF92BF92CF92DF92EF92FF920F931F9318
:100E1000CF93DF9300D000D01F92CDB7DEB78C0107
:100E20006B015D834C83922EB12CAA24A3947C0188
:100E300081E1E80EF11C0FB6F8940F92F801828D53
:100E4000882399F1E680F780B601C8010E948F05DA
:100E500091101AC0F801828D8150828F808191811A
:100E6000892B29F40E94EE0CF80193838283F80108
:100E700080858823B1F0C80108960E94BC0B8130A0
:100E800081F40E94AA030DC0F801F782E6828189ED
:100E9000882339F0C80141960E94BC0B81110E9441
:100EA000AA030F900FBE81E05CC08C819D81892BCD
:100EB00021F40F900FBE80E054C0B11005C0CE01E8
:100EC00001960E94040CBA2C0F900FBE0E94550987
:100ED0000FB6F8940F92F801858D8F3F09F4158EA7
:100EE000F801868D8F3F09F4168E0F900FBEBE015C
:100EF0006C5F7F4FCE0101960E940F0C81112BC0B9
:100F00000FB6F8940F92F801828D0F900FBE8111E9
:100F10001CC080819181892B49F40FB6F8940F92FF
:100F2000828193810E944C0C0F900FBE6C817D8159
:100F3000C7010E94900BC8010E94A9050E94220AC5
:100F4000811179CF0E94AA0376CFC8010E94A9051A
:100F50000E94220A70CFC8010E94A9050E94220A9D
:100F600080E00F900F900F900F900F90DF91CF9136
:100F70001F910F91FF90EF90DF90CF90BF90AF90B7
:100F80009F900895E091B907F091BA07808181118F
:100F900007C08FEF9FEF90930301809302010895A4
:100FA000E091B907F091BA070580F681E02D06803F
:100FB000F781E02D82819381909303018093020158
:100FC0000895CF93DF93EC01E091E807F091E907F2
:100FD000938382838091960790919707C817D907CA
:100FE00068F46091E8077091E9078091B7079091E4
:100FF000B8076E5F7F4F0E94AD0217C06091E8078F
:101000007091E9078091B9079091BA076E5F7F4FA1
:101010000E94AD028091020190910301C817D90787
:1010200020F4D0930301C0930201DF91CF91089582
:101030004F925F926F927F928F929F92AF92BF92E8
:10104000CF92DF92EF92FF920F931F93CF93DF9394
:101050004C01EB015A012901C114D10439F4CA0130
:101060000E9462046C01892B09F4DEC088E290E0E2
:101070000E9462043C01009779F0FC01D08EC78A7F
:10108000F1E0AF1AB108CA0CDB1C8881F301818F33
:101090008881811105C014C0C6010E94FC04C4C02F
:1010A000D3015A96FE0131969E01285F3F4FEF0112
:1010B00081918D938881882319F0E217F307B9F79E
:1010C000F30110A2102F033008F012E0F301168B89
:1010D00011A312A2E3012296CE010E948802C3014D
:1010E0000C960E948802F3017186608683E090E08E
:1010F000811B910995878487738A628A13A214A23F
:1011000015A216A217A2A201B401C6010E940403EF
:10111000F30191838083E114F10419F0F7017182E6
:1011200060820FB6F8940F92809198078F5F80933A
:1011300098078091E8079091E907892BA9F57092AB
:10114000E9076092E807809198078130E1F58DEC1E
:1011500097E00E947A0286ED97E00E947A028FED76
:1011600097E00E947A0284EC97E00E947A028BEB6F
:1011700097E00E947A028EEA97E00E947A0285EA5E
:1011800097E00E947A028BE997E00E947A0284EC51
:1011900097E09093BA078093B9078BEB97E0909311
:1011A000B8078093B7070FC08091940781110BC0D7
:1011B000E091E807F091E9078689081720F070921E
:1011C000E9076092E807809190078F5F809390070E
:1011D000F301868990919507981710F480939507ED
:1011E00090E09C01220F331F220F331F220F331F69
:1011F000820F931FBE018353984F0E948C020F9061
:101200000FBE80919407882359F0E091E807F09190
:10121000E9078689801730F40E94AA0381E005C09F
:1012200081E003C081E001C08FEFDF91CF911F917A
:101230000F91FF90EF90DF90CF90BF90AF909F9075
:101240008F907F906F905F904F900895AF92BF9274
:10125000CF92DF92EF92FF920F93A12CB12CC12C71
:10126000D12C0F2EF9E9EF2EF7E0FF2EF02D00E044
:1012700020E030E045E550E064EA71E086EE9AE077
:101280000E941808813049F4F894809394071092D2
:101290009707109296070E9470030F91FF90EF90AE
:1012A000DF90CF90BF90AF90089580918F078F5FB0
:1012B00080938F0708950FB6F8940F928091960748
:1012C000909197070F900FBE0895CF92DF92EF9203
:1012D000FF920F931F93CF93DF9380918F0781111C
:1012E0009BC08091960790919707019690939707DE
:1012F00080939607E0909607F0909707E114F10429
:10130000B9F48091B9079091BA072091B70730914D
:10131000B8073093BA072093B9079093B807809322
:10132000B707809191078F5F809391070E94C20752
:101330008091020190910301E816F90610F4D12C76
:1013400053C0D12CCC24C394E091B907F091BA07D3
:101350008081811107C08FEF9FEF909303018093ED
:10136000020142C0E091B907F091BA070580F68109
:10137000E02DC681D7818A819B81E816F90628F481
:1013800090930301809302012FC08E010E5F1F4FC7
:10139000C8010E94DE028C899D89892B21F0CE0133
:1013A0000C960E94DE028E8990919507981710F492
:1013B0008093950790E09C01220F331F220F331F6B
:1013C000220F331F820F931FB8018353984F0E943F
:1013D0008C02E091E807F091E9079E8986899817C9
:1013E00008F4B2CFDC2CB0CFE091E807F091E90728
:1013F000868990E0FC01EE0FFF1FEE0FFF1FEE0F3E
:10140000FF1F8E0F9F1FFC01E353F84F8081823036
:1014100048F0DD24D39406C0809193078F5F8093BA
:101420009307D12C80919207882311F0DD24D39467
:101430008D2DDF91CF911F910F91FF90EF90DF9055
:10144000CF900895DF92EF92FF920F931F93CF9367
:10145000DF930FB6F8940F9280918F07815080939D
:101460008F0780918F07811162C080919807811149
:1014700033C060C0D7011596ED91FC911697C681D7
:10148000D781CE010C960E94DE028E010E5F1F4FA7
:10149000C8010E94DE028E8990919507981710F47A
:1014A0008093950790E09C01220F331F220F331F7A
:1014B000220F331F820F931FB8018353984F0E944E
:1014C0008C02E091E807F091E9079E8986899817D8
:1014D00058F0D092920708C00F2EFEEAEF2EF7E0E8
:1014E000FF2EF02DDD24D394F70180818111C2CF2E
:1014F00080919307882399F080919307882379F04E
:10150000C1E00E9465098111C09392078091930701
:10151000815080939307809193078111F2CF80913E
:101520009207813031F40E94AA0381E003C080E079
:1015300001C080E00F900FBEDF91CF911F910F91FE
:10154000FF90EF90DF9008950F931F93CF93DF9359
:101550008C01EB010E945509209196073091970765
:10156000F80180819181C80FD91F2817390748F4E5
:10157000C817D90710F5D183C0832C173D0790F405
:1015800007C0C817D907A8F02C173D0790F015C061
:101590008091E8079091E90702960E94DE02CE0151
:1015A0000E94E1070E94220A81110BC00E94AA0337
:1015B00008C0F801D183C083EBCFF801D183C08389
:1015C000F1CFDF91CF911F910F91089505EA17E0B8
:1015D0000F2EFDECEF2EF7E0FF2EF02D29C00E941C
:1015E0005509D801CC910E94220ACC2309F10FB6EB
:1015F000F8940F92D8011596ED91FC911697C6813B
:10160000D781CE0102960E94DE0280919807815018
:10161000809398078091A40781508093A4070F902E
:101620000FBE8F89988D0E94FC04CE010E94FC049D
:101630008091A4078111D3CFF70180818230C0F35C
:101640000E94AA03F5CF80918F07882321F081E0C3
:10165000809392070895109292078091950790E0E9
:10166000FC01EE0FFF1FEE0FFF1FEE0FFF1F8E0F8F
:101670009F1FFC01E353F84F8081811117C08091B7
:1016800095078150809395078091950790E0FC0124
:10169000EE0FFF1FEE0FFF1FEE0FFF1F8E0F9F1F9E
:1016A000FC01E353F84F8081882349F3809195072B
:1016B00090E09C01220F331F220F331F220F331F94
:1016C000280F391FD901A353B84F1196ED91FC9102
:1016D00012970280F381E02D1296FC93EE931197FE
:1016E0002053384FE217F30729F422813381FD019B
:1016F00032832183FC01EE0FFF1FEE0FFF1FEE0F61
:10170000FF1F8E0F9F1FFC01E353F84F0180F281F2
:10171000E02D868197819093E9078093E8070895EB
:10172000CF93DF93EB016091E8077091E907645F65
:101730007F4F0E94AD028091E8079091E9070296E1
:101740000E94DE02CF3F8FEFD80759F46091E8077F
:101750007091E9076E5F7F4F8BE997E00E948C02E2
:1017600008C080919607909197078C0F9D1F0E944B
:10177000E107DF91CF9108950F931F93CF93DF93EC
:10178000DC011596ED91FC911697C681D7818E01EB
:10179000045F1F4FC8010E94DE0280918F078111F4
:1017A0001CC00A501109C8010E94DE028E89909166
:1017B0009507981710F48093950790E09C01220FED
:1017C000331F220F331F220F331F820F931FB801C5
:1017D0008353984F0E948C0205C0B8018EEA97E0AF
:1017E0000E948C02E091E807F091E9079E898689C2
:1017F000891720F481E08093920701C080E0DF9197
:10180000CF911F910F91089520919107FC012083A2
:1018100020919607309197073283218308950FB660
:10182000F8940F924091960750919707DB012D9104
:101830003C912F3FBFEF3B0719F1E0919107DC018D
:10184000FC91FE1739F01196ED91FC9112974E170D
:101850005F07C0F4DC011196ED91FC911297DA015B
:10186000AE1BBF0BA217B30778F4DB01E41BF50B2B
:101870002E0F3F1F2D933C930E94040C80E005C067
:1018800080E003C081E001C081E00F900FBE0895A9
:1018900081E08093920708950F931F93CF93DF9376
:1018A000FC01892B09F455C02689A091E807B09165
:1018B000E90756968C91281708F04BC084859585CA
:1018C000992364F0A091E807B091E90756963C91FE
:1018D00083E090E0831B91099587848730E0C901FC
:1018E000880F991F880F991F880F991F280F391F7C
:1018F0002353384F828593858217930719F58F01FB
:10190000EF012296CE010E94DE02E091E807F091FD
:10191000E9078689F801868B90919507981710F44E
:101920008093950790E09C01220F331F220F331FF5
:10193000220F331F820F931FBE018353984F0E94C3
:101940008C0207C0A091E807B091E90756968C91E8
:10195000868BDF91CF911F910F9108950F931F9365
:10196000CF93DF93FC01892B79F182A1815082A36F
:10197000268991A1291751F181112AC0EF018F0108
:101980000E5F1F4FC8010E94DE0289A18E8B23E0EB
:1019900030E0281B31093D872C87909195079817D7
:1019A00010F48093950790E09C01220F331F220FC3
:1019B000331F220F331F820F931FB8018353984F99
:1019C0000E948C0281E005C080E003C080E001C07D
:1019D00080E0DF91CF911F910F9108958091E807EA
:1019E0009091E907892B39F0E091E807F091E90738
:1019F00082A18F5F82A38091E8079091E907089503
:101A0000823000F5E82FF0E0EE0FFF1FE651F84FAF
:101A100071836083882319F0813049F00895E9E6E5
:101A2000F0E080818C7F482B4083E89A0895E9E6B6
:101A3000F0E08081837F440F551F440F551F482BD2
:101A40004083E99A08951F920F920FB60F921124C6
:101A50002F933F934F935F936F937F938F939F93B6
:101A6000AF93BF93EF93FF938091EA079091EB07B9
:101A7000892B29F0E091EA07F091EB070995FF9196
:101A8000EF91BF91AF919F918F917F916F915F91F6
:101A90004F913F912F910F900FBE0F901F9018956F
:101AA0001F920F920FB60F9211242F933F934F93D3
:101AB0005F936F937F938F939F93AF93BF93EF93B6
:101AC000FF938091EC079091ED07892B29F0E0912D
:101AD000EC07F091ED070995FF91EF91BF91AF9160
:101AE0009F918F917F916F915F914F913F912F9136
:101AF0000F900FBE0F901F9018950E94910D0C949F
:101B0000430E0E943C0E58F00E94350E40F029F41E
:101B10005F3F29F00C942C0E51110C94770E0C940D
:101B2000320E0E94540E68F39923B1F3552391F3BA
:101B3000951B550BBB27AA2762177307840738F03C
:101B40009F5F5F4F220F331F441FAA1FA9F335D099
:101B50000E2E3AF0E0E832D091505040E695001C4D
:101B6000CAF72BD0FE2F29D0660F771F881FBB1F07
:101B7000261737074807AB07B0E809F0BB0B802DE5
:101B8000BF01FF2793585F4F3AF09E3F510578F011
:101B90000C942C0E0C94770E5F3FE4F3983ED4F334
:101BA000869577956795B795F7959F5FC9F7880FE5
:101BB000911D9695879597F90895E1E0660F771F37
:101BC000881FBB1F621773078407BA0720F0621BC8
:101BD000730B840BBA0BEE1F88F7E0950895E89419
:101BE00009C097FB3EF490958095709561957F4F65
:101BF0008F4F9F4F9923A9F0F92F96E9BB27939513
:101C0000F695879577956795B795F111F8CFFAF422
:101C1000BB0F11F460FF1BC06F5F7F4F8F4F9F4F53
:101C200016C0882311F096E911C0772321F09EE8B1
:101C3000872F762F05C0662371F096E8862F70E017
:101C400060E02AF09A95660F771F881FDAF7880FF1
:101C50009695879597F9089597F99F6780E870E0C2
:101C600060E008959FEF80EC089500240A94161612
:101C7000170618060906089500240A94121613067A
:101C8000140605060895092E0394000C11F4882308
:101C900052F0BB0F40F4BF2B11F460FF04C06F5F24
:101CA0007F4F8F4F9F4F089557FD9058440F551FFA
:101CB00059F05F3F71F04795880F97FB991F61F0CE
:101CC0009F3F79F087950895121613061406551F45
:101CD000F2CF4695F1DF08C0161617061806991FB1
:101CE000F1CF86957105610508940895E894BB27A6
:101CF00066277727CB0197F908950E94900E0C94E0
:101D0000430E0E94350E38F00E943C0E20F09523C1
:101D100011F00C942C0E0C94320E11240C94770EAE
:101D20000E94540E70F3959FC1F3950F50E0551F1C
:101D3000629FF001729FBB27F00DB11D639FAA2720
:101D4000F00DB11DAA1F649F6627B00DA11D661F6F
:101D5000829F2227B00DA11D621F739FB00DA11D90
:101D6000621F839FA00D611D221F749F3327A00D4A
:101D7000611D231F849F600D211D822F762F6A2FE6
:101D800011249F5750409AF0F1F088234AF0EE0F4B
:101D9000FF1FBB1F661F771F881F91505040A9F778
:101DA0009E3F510580F00C942C0E0C94770E5F3FF3
:101DB000E4F3983ED4F3869577956795B795F795B4
:101DC000E7959F5FC1F7FE2B880F911D969587952C
:101DD00097F90895FB01DC0102C001900D9241507A
:0A1DE0005040D8F70895F894FFCFA3
:101DEA00DB05FFFFC8003200C800200128013601C8
:101DFA00437269746963616C004E6F726D616C0045
:101E0A00536D6F6B653A200054656D70657261742D
:101E1A007572653A20005761746572204C65766563
:101E2A006C3A2000536D6F6B652053656E736F7249
:101E3A002048616E646C65720054656D702053654C
:101E4A006E736F722048616E646C657200576174BC
:101E5A0065722044657074682053656E736F7220D2
:101E6A0048616E646C65720052656164696E67737D
:101E7A002048616E646C65720074727565006661F3
:0A1E8A006C73650049444C450000EC
:00000001FF
