S01A000041726475696E6F556E6F4672656572746F732E73726563BC
S11300000C9434000C94490D0C94760D0C9451000E
S11300100C9451000C9451000C9451000C94510018
S11300200C9451000C9451000C9451000C948004D5
S11300300C9451000C9451000C9451000C945100F8
S11300400C9451000C9451000C9451000C945100E8
S11300500C9451000C9451000C9451000C945100D8
S11300600C9451000C94510011241FBECFEFD8E022
S1130070DEBFCDBF11E0A0E0B1E0E6E3FEE102C0E7
S113008005900D92AA3AB107D9F727E0AAEAB1E0A0
S113009001C01D92A23FB207E1F70E940D010C942A
S11300A0190F0C9400000E9486094091EE075091AC
S11300B0EF076091F0077091F107A0E0B0E0841BB6
S11300C0950BA60BB70B853F9140A105B10568F0D0
S11300D02D980E948609A0E0B0E08093EE079093EB
S11300E0EF07A093F007B093F1070895CF93DF9340
S11300F0CDB7DEB764970FB6F894DEBF0FBECDBFA1
S11301001C011A8219821C821B821E821D8286E0B7
S1130110E4E0F1E0DE01179601900D928A95E1F793
S113012086E0EAE0F1E0DE011D9601900D928A95E9
S1130130E1F70E947C099C8B8B8B410126E0820EA7
S1130140911C71018E010F5F1F4F5E0137E0A30EFA
S1130150B11C6E018DE0C80ED11C20E040E050E0DF
S1130160B801F701819191917F010E9420078130AC
S113017099F50E944202F80160807180F501408087
S1130180518025B181E090E04614570414F080E0DA
S113019090E0880F991F82959295907F9827807F91
S11301A09827822B85B9F601808191810E9479027A
S11301B0461457042CF029E131E0822F932F04C018
S11301C0E0E1F1E08E2F9F2F0E9479026CED75E043
S11301D0CE0143960E94CA0A0E5F1F4FF2E0AF0E93
S11301E0B11C22E0C20ED11CE814F90409F0B5CF09
S11301F0A8CF0E948802ECE7F0E0808180648083CD
S1130200EAE7F0E080818768808380E284B915B8EA
S113021084E08AB91BB817B80895CF93DF9300D050
S113022000D000D0CDB7DEB70E94F900F89441E0C9
S113023050E063E570E080E090E00E94260DFE014E
S1130240319686E0DF011D928A95E9F78F017E01E0
S1130250B7E0EB0EF11C40E062E083E00E9453063D
S1130260F801819391938F01EE15FF05A1F791E0B9
S113027029813A81232B09F490E081E02B813C8190
S1130280232B09F480E0892391E02D813E81232BE7
S113029009F490E08923B9F1A12CB12CC12CD12C03
S11302A0E12CF12C04E09E012F5F3F4F40E051E030
S11302B064E471E086E991E00E9439089E012D5FB3
S11302C03F4F40E051E069E571E088EB91E00E9426
S11302D039089E012B5F3F4F40EF50E06DE671E01F
S11302E08FEE91E00E94390803E09E012F5F3F4F9B
S11302F040E051E068E871E086E790E00E94390848
S113030078940E944709FFCFECE7F0E09081892BB5
S11303108083EAE7F0E0808180648083808186FDC9
S1130320FDCF80917800909179000895CF93DF9369
S113033000D000D0CDB7DEB78C010E947C099A832F
S1130340898382E00E9484019C838B8320E040E0C7
S113035050E0BE016D5F7F4FF801808191810E9462
S11303607F0660ED77E0CE0101960E94CA0AE9CFCC
S1130370CF93DF9300D000D000D0CDB7DEB78C018F
S11303800E947C099A83898383E00E948401BC01D2
S1130390990F880B990B0E94170E26EF38E24CE94F
S11303A050E40E94A30E20E030E040E251E40E94B9
S11303B0A30D6B837C838D839E8320E040E050E01B
S11303C0BE016D5F7F4FF801808191810E947F069D
S11303D060ED77E0CE0101960E94CA0AD5CFCF9393
S11303E0DF9300D000D0CDB7DEB78C011A8219821A
S11303F00E947C099C838B8384E00E9484019A83FD
S1130400898320E040E050E0BE016F5F7F4FF80138
S1130410808191810E947F0660ED77E0CE01039692
S11304200E94CA0AE9CF9FEF9AB997B941989BB144
S11304309F70282F207F922B9BB9409AE9EFF0E020
S11304403197F1F700C000004098E3EFF1E03197F5
S1130450F1F700C000002BB12F70F0E18F9FC001B5
S11304601124822B8BB9409A83EF91E00197F1F725
S113047000C000004098EBE5F4E43197F1F700C0C8
S11304800000089581E00E94130280E80E94130294
S1130490089590EF9AB993E097B9419A9BB19F70F0
S11304A0282F207F922B9BB9409AE9EFF0E03197F7
S11304B0F1F700C000004098E9EFF0E03197F1F760
S11304C000C000002BB12F70F0E18F9FC0011124F8
S11304D0822B8BB9409A89EF90E00197F1F700C025
S11304E000004098E3EFF1E03197F1F700C000001D
S11304F00895CF93DF93EC018881882331F021960E
S11305000E94490289918111FBCFDF91CF91089517
S113051083E30E94130282E30E94130288E20E9492
S113052013028CE00E94130286E00E94130281E011
S11305300E9413020895FC010396928381832FEF96
S11305403FEF348323839683858390878783108248
S11305500895FC01118610860895CF93DF939C01C2
S1130560FB01DC011196CD91DC911297D383C283F8
S11305708C819D81958384838C819D81DC0113967C
S11305807C936E9312977D836C8331872087F90166
S113059080818F5F8083DF91CF910895CF93DF9324
S11305A0EB01488159814F3F2FEF520721F4FC01A1
S11305B0A781B0850DC0DC01139601C0DF0112963E
S11305C0ED91FC9113972081318142175307B0F7C5
S11305D01296ED91FC911397FB83EA83D583C48330
S11305E0BD83AC831396DC93CE9312979987888747
S11305F0FC0120812F5F2083DF91CF910895CF9359
S1130600DF93FC01A085B185C281D381848195816A
S11306109D838C83C481D581828193819B838A83CA
S113062011968D919C911297E817F90731F4848102
S1130630958112969C938E931197118610868C91B6
S113064081508C93DF91CF91089531E1FC01308387
S1130650319722E220833197A3E3A083319760830B
S11306603197708331971082319760E860833197B6
S11306701082319762E06083319763E06083319741
S113068064E06083319765E06083319766E060835E
S1130690319767E06083319768E06083319769E060
S11306A06083319760E1608331973083319732E121
S11306B03083319733E13083319734E1308331979C
S11306C035E13083319736E13083319737E1308338
S11306D0319738E13083319739E13083319730E213
S11306E03083319731E2308331972083319723E28D
S11306F020833197408331975083319726E22083BA
S1130700319727E22083319728E22083319729E229
S11307102083319720E32083319721E32083869738
S11307200895109289008CE7809388008BE0809371
S11307308100EFE6F0E0808182608083A091E80789
S1130740B091E907CD91CDBFDD91DEBFFF91EF916F
S1130750DF91CF91BF91AF919F918F917F916F91D5
S11307605F914F913F912F911F910F91FF90EF90C7
S1130770DF90CF90BF90AF909F908F907F906F90BD
S11307805F904F903F902F901F900F900FBE0F904F
S1130790089581E008950F920FB6F8940F921F9276
S11307A011242F923F924F925F926F927F928F9279
S11307B09F92AF92BF92CF92DF92EF92FF920F93EC
S11307C01F932F933F934F935F936F937F938F93D5
S11307D09F93AF93BF93CF93DF93EF93FF93A09136
S11307E0E807B091E9070DB60D920EB60D920E947E
S11307F0490BA091E807B091E907CD91CDBFDD91F8
S1130800DEBFFF91EF91DF91CF91BF91AF919F91A7
S11308108F917F916F915F914F913F912F911F9194
S11308200F91FF90EF90DF90CF90BF90AF909F908B
S11308308F907F906F905F904F903F902F901F907C
S11308400F900FBE0F9008950F920FB6F8940F9269
S11308501F9211242F923F924F925F926F927F9238
S11308608F929F92AF92BF92CF92DF92EF92FF92BC
S11308700F931F932F933F934F935F936F937F93A4
S11308808F939F93AF93BF93CF93DF93EF93FF9394
S1130890A091E807B091E9070DB60D920EB60D923E
S11308A00E948B0981110E94490BA091E807B09125
S11308B0E907CD91CDBFDD91DEBFFF91EF91DF91CF
S11308C0CF91BF91AF919F918F917F916F915F91E4
S11308D04F913F912F911F910F91FF90EF90DF90D7
S11308E0CF90BF90AF909F908F907F906F905F90CC
S11308F04F903F902F901F900F900FBE0F90089530
S11309000E94240418950F931F93CF93DF93EC0157
S11309100E9476098091AA0181111DC0EFEAF1E0DD
S113092084EB91E09183808313821282EBEAF1E0FD
S11309308BED95E09383828311821082A3EBB1E067
S113094014969C938E9313971296FC93EE9311979F
S113095081E08093AA01209709F45FC09E012C5F77
S11309603F4F2396CA3DD54008F05AC0E091AF01ED
S1130970F091B001AFEAB1E002C0DF01FC01828175
S113098093818217930720F4808191810097A9F7BE
S1130990C1E0EB3AFC0709F446C0CD91DC91119714
S11309A08E010C5F1F4F808191818D939C93828176
S11309B09381821B930B8930910510F1BF01620F63
S11309C0731FDB0113969C938E93129733832283B8
S11309D012964D915C9113978FEA91E001C0CD017D
S11309E0EC01A881B98112962D913C91139724179B
S11309F03507A8F3EB01B983A883DC016D937C93DD
S1130A00809100019091010122813381821B930B1B
S1130A10909301018093000108C000E010E005C03C
S1130A2000E010E002C000E010E00E94480AC801A3
S1130A30DF91CF911F910F9108950F931F93CF933F
S1130A40DF93009741F1EC018C01045011090E94DD
S1130A507609F80142815381AFEAB1E001C0DF01B8
S1130A60ED91FC9111972281338124173507B8F356
S1130A702497F983E8830D931C932091000130910E
S1130A8001018A819B81820F931F909301018093BE
S1130A9000010E94480ADF91CF911F910F910895A0
S1130AA01F93CF93DF93EC01142F4C8D41110CC095
S1130AB088819981892B09F045C08A819B810E9494
S1130AC0D40C1B821A8245C0111117C050E08C81CE
S1130AD09D810E94100F2C8D8C819D81820F911D10
S1130AE09D838C832A813B818217930768F18881D7
S1130AF099819D838C8380E02CC050E08E819F81FE
S1130B000E94100F8C8D90E09195819591092E8112
S1130B103F81280F391F3F832E8348815981241731
S1130B20350730F42A813B81820F931F9F838E8384
S1130B30123061F48A8D882359F08A8D81508A8F0E
S1130B4080E007C080E005C080E003C080E001C011
S1130B5080E09A8D9F5F9A8FDF91CF911F910895C6
S1130B60FC01448D4423A9F050E026813781240FF1
S1130B70351F37832683828193812817390720F014
S1130B808081918197838683CB01668177810E94DE
S1130B90100F08950F931F93CF93DF93EC010FB6BB
S1130BA0F8940F928E8D1816BCF48989811105C0B2
S1130BB013C08989811104C00FC08E010F5E1F4FBD
S1130BC0C8010E94E20B81110E946E0C8E8D81502F
S1130BD08E8F8E8D18166CF38FEF8E8F0F900FBE45
S1130BE00FB6F8940F928D8D1816BCF48885811178
S1130BF005C013C08885811104C00FC08E01085F31
S1130C001F4FC8010E94E20B81110E946E0C8D8D52
S1130C1081508D8F8D8D18166CF38FEF8D8F0F9003
S1130C200FBEDF91CF911F910F910895CF93DF9362
S1130C30EC010FB6F8940F92488159812C8D30E065
S1130C407B8D729FC001739F900D1124FA01E80FF0
S1130C50F91FFB83EA831A8E5D834C83821B930BFB
S1130C60840F951F9F838E838FEF8D8F8E8F6111DD
S1130C700CC08885882389F0CE0108960E94E20B77
S1130C80813059F40E94CB0308C0CE0108960E941B
S1130C909B02CE0141960E949B020F900FBE81E001
S1130CA0DF91CF9108950F931F93CF93DF93082F74
S1130CB0162F6623B9F0869FC001112480960E94E6
S1130CC08304EC01009721F414C0D983C88303C0C2
S1130CD04F96998388830B8F1C8F61E0CE010E940D
S1130CE0160607C08FE190E00E948304EC01892B73
S1130CF061F7CE01DF91CF911F910F9108959F92DB
S1130D00AF92BF92CF92DF92EF92FF920F931F9315
S1130D10CF93DF9300D000D01F92CDB7DEB78C0104
S1130D206B015D834C83A22EB12C992493947C0196
S1130D3088E0E80EF11C0FB6F8940F92F801928D3A
S1130D40838D981718F0F2E0AF1219C04A2DB6013E
S1130D50C8010E945005F8019189992349F0C801FE
S1130D6041960E94E20B813031F40E94CB0303C010
S1130D7081110E94CB030F900FBE81E050C08C8183
S1130D809D81892B21F40F900FBE80E048C0B110E3
S1130D9005C0CE0101960E942A0CB92C0F900FBEFB
S1130DA00E9476090FB6F8940F92F801858D8F3F53
S1130DB009F4158EF801868D8F3F09F4168E0F9075
S1130DC00FBEBE016C5F7F4FCE0101960E94350CB1
S1130DD081111FC00FB6F8940F92F801928D0F90F5
S1130DE00FBE838D98130FC06C817D81C7010E9453
S1130DF0B60BC8010E94CA050E94480A81119BCF04
S1130E000E94CB0398CFC8010E94CA050E94480AD9
S1130E1092CFC8010E94CA050E94480A80E00F9040
S1130E200F900F900F900F90DF91CF911F910F9122
S1130E30FF90EF90DF90CF90BF90AF909F90089578
S1130E409F92AF92BF92CF92DF92EF92FF920F9355
S1130E501F93CF93DF9300D000D01F92CDB7DEB79E
S1130E608C016B015D834C83922EB12CAA24A39434
S1130E707C0181E1E80EF11C0FB6F8940F92F801A1
S1130E80828D882399F1E680F780B601C8010E941B
S1130E90B00591101AC0F801828D8150828F808133
S1130EA09181892B29F40E94140DF8019383828384
S1130EB0F80180858823B1F0C80108960E94E20BEE
S1130EC0813081F40E94CB030DC0F801F782E682E1
S1130ED08189882339F0C80141960E94E20B81116F
S1130EE00E94CB030F900FBE81E05CC08C819D817A
S1130EF0892B21F40F900FBE80E054C0B11005C0BF
S1130F00CE0101960E942A0CBA2C0F900FBE0E94AB
S1130F1076090FB6F8940F92F801858D8F3F09F486
S1130F20158EF801868D8F3F09F4168E0F900FBE33
S1130F30BE016C5F7F4FCE0101960E94350C81117A
S1130F402BC00FB6F8940F92F801828D0F900FBE4C
S1130F5081111CC080819181892B49F40FB6F894CA
S1130F600F92828193810E94720C0F900FBE6C814C
S1130F707D81C7010E94B60BC8010E94CA050E9468
S1130F80480A811179CF0E94CB0376CFC8010E9411
S1130F90CA050E94480A70CFC8010E94CA050E946F
S1130FA0480A80E00F900F900F900F900F90DF9100
S1130FB0CF911F910F91FF90EF90DF90CF90BF9052
S1130FC0AF909F900895E091B907F091BA0780819E
S1130FD0811107C08FEF9FEF90930301809302016B
S1130FE00895E091B907F091BA070580F681E02DE4
S1130FF00680F781E02D8281938190930301809391
S113100002010895CF93DF93EC01E091E807F0919A
S1131010E907938382838091960790919707C81775
S1131020D90768F46091E8077091E9078091B707E0
S11310309091B8076E5F7F4F0E94CE0217C06091F7
S1131040E8077091E9078091B9079091BA076E5F3C
S11310507F4F0E94CE028091020190910301C81734
S1131060D90720F4D0930301C0930201DF91CF91FB
S113107008954F925F926F927F928F929F92AF9258
S1131080BF92CF92DF92EF92FF920F931F93CF9371
S1131090DF934C01EB015A012901C114D10439F445
S11310A0CA010E9483046C01892B09F4DEC088E222
S11310B090E00E9483043C01009779F0FC01D08EFB
S11310C0C78AF1E0AF1AB108CA0CDB1C8881F301AE
S11310D0818F8881811105C014C0C6010E941D053D
S11310E0C4C0D3015A96FE0131969E01285F3F4F3A
S11310F0EF0181918D938881882319F0E217F3071A
S1131100B9F7F30110A2102F033008F012E0F30135
S1131110168B11A312A2E3012296CE010E94A9020A
S1131120C3010C960E94A902F3017186608683E0D4
S113113090E0811B910995878487738A628A13A240
S113114014A215A216A217A2A201B401C6010E94FC
S11311502503F30191838083E114F10419F0F7016D
S1131160718260820FB6F8940F92809198078F5F16
S1131170809398078091E8079091E907892BA9F556
S11311807092E9076092E807809198078130E1F551
S11311908DEC97E00E949B0286ED97E00E949B02F3
S11311A08FED97E00E949B0284EC97E00E949B02E3
S11311B08BEB97E00E949B028EEA97E00E949B02D1
S11311C085EA97E00E949B028BE997E00E949B02CC
S11311D084EC97E09093BA078093B9078BEB97E080
S11311E09093B8078093B7070FC08091940781113B
S11311F00BC0E091E807F091E9078689081720F011
S11312007092E9076092E807809190078F5F80935E
S11312109007F301868990919507981710F48093AD
S1131220950790E09C01220F331F220F331F220FDA
S1131230331F820F931FBE018353984F0E94AD0248
S11312400F900FBE80919407882359F0E091E8072E
S1131250F091E9078689801730F40E94CB0381E07E
S113126005C081E003C081E001C08FEFDF91CF9121
S11312701F910F91FF90EF90DF90CF90BF90AF90B0
S11312809F908F907F906F905F904F900895AF9252
S1131290BF92CF92DF92EF92FF920F93A12CB12CC9
S11312A0C12CD12C0F2EF9E9EF2EF7E0FF2EF02DF3
S11312B000E020E030E045E550E064EA71E08CE0D5
S11312C09BE00E943908813049F4F8948093940794
S11312D010929707109296070E9491030F91FF9026
S11312E0EF90DF90CF90BF90AF90089580918F07DB
S11312F08F5F80938F0708950FB6F8940F928091B3
S11313009607909197070F900FBE089580919607C6
S1131310909197070895CF92DF92EF92FF920F93E7
S11313201F93CF93DF9380918F0781119BC080918E
S11313309607909197070196909397078093960745
S1131340E0909607F0909707E114F104B9F48091C6
S1131350B9079091BA072091B7073091B807309335
S1131360BA072093B9079093B8078093B707809181
S113137091078F5F809391070E94E3078091020198
S113138090910301E816F90610F4D12C53C0D12C26
S1131390CC24C394E091B907F091BA0780818111FC
S11313A007C08FEF9FEF909303018093020142C027
S11313B0E091B907F091BA070580F681E02DC68166
S11313C0D7818A819B81E816F90628F4909303015A
S11313D0809302012FC08E010E5F1F4FC8010E942F
S11313E0FF028C899D89892B21F0CE010C960E94E5
S11313F0FF028E8990919507981710F480939507B2
S113140090E09C01220F331F220F331F220F331F42
S1131410820F931FB8018353984F0E94AD02E0914D
S1131420E807F091E9079E898689981708F4B2CFF6
S1131430DC2CB0CFE091E807F091E907868990E0D1
S1131440FC01EE0FFF1FEE0FFF1FEE0FFF1F8E0FAD
S11314509F1FFC01E353F84F8081823048F0DD2464
S1131460D39406C0809193078F5F80939307D12C08
S113147080919207882311F0DD24D3948D2DDF9180
S1131480CF911F910F91FF90EF90DF90CF9008952F
S1131490DF92EF92FF920F931F93CF93DF930FB6D8
S11314A0F8940F9280918F07815080938F078091D9
S11314B08F07811162C080919807811133C060C089
S11314C0D7011596ED91FC911697C681D781CE016F
S11314D00C960E94FF028E010E5F1F4FC8010E94EE
S11314E0FF028E8990919507981710F480939507C1
S11314F090E09C01220F331F220F331F220F331F52
S1131500820F931FB8018353984F0E94AD02E0915C
S1131510E807F091E9079E898689981758F0D092D8
S1131520920708C00F2EFEEAEF2EF7E0FF2EF02DF3
S1131530DD24D394F70180818111C2CF8091930778
S1131540882399F080919307882379F0C1E00E9461
S11315508B098111C09392078091930781508093E6
S11315609307809193078111F2CF80919207813084
S113157031F40E94CB0381E003C080E001C080E02D
S11315800F900FBEDF91CF911F910F91FF90EF90BD
S1131590DF9008950F931F93CF93DF938C01EB019A
S11315A00E9476092091960730919707F80180816F
S11315B09181C80FD91F2817390748F4C817D907CC
S11315C010F5D183C0832C173D0790F407C0C817CA
S11315D0D907A8F02C173D0790F015C08091E807B3
S11315E09091E90702960E94FF02CE010E94020830
S11315F00E94480A81110BC00E94CB0308C0F80165
S1131600D183C083EBCFF801D183C083F1CFDF91C5
S1131610CF911F910F91089505EA17E00F2EFDEC6D
S1131620EF2EF7E0FF2EF02D29C00E947609D80195
S1131630CC910E94480ACC2309F10FB6F8940F927A
S1131640D8011596ED91FC911697C681D781CE01EC
S113165002960E94FF028091980781508093980718
S11316608091A40781508093A4070F900FBE8F89A7
S1131670988D0E941D05CE010E941D058091A4072E
S11316808111D3CFF70180818230C0F30E94CB0354
S1131690F5CF80918F07882321F081E08093920712
S11316A00895109292078091950790E0FC01EE0F47
S11316B0FF1FEE0FFF1FEE0FFF1F8E0F9F1FFC017A
S11316C0E353F84F8081811117C0809195078150B1
S11316D0809395078091950790E0FC01EE0FFF1F22
S11316E0EE0FFF1FEE0FFF1F8E0F9F1FFC01E35332
S11316F0F84F8081882349F38091950790E09C01FD
S1131700220F331F220F331F220F331F280F391FBD
S1131710D901A353B84F1196ED91FC911297028011
S1131720F381E02D1296FC93EE9311972053384FDA
S1131730E217F30729F422813381FD0132832183E7
S1131740FC01EE0FFF1FEE0FFF1FEE0FFF1F8E0FAA
S11317509F1FFC01E353F84F0180F281E02D868145
S113176097819093E9078093E8070895CF93DF93D7
S1131770EB016091E8077091E907645F7F4F0E9475
S1131780CE028091E8079091E90702960E94FF0239
S1131790CF3F8FEFD80759F46091E8077091E907BC
S11317A06E5F7F4F8BE997E00E94AD0208C0809185
S11317B09607909197078C0F9D1F0E940208DF9156
S11317C0CF9108950F931F93CF93DF93DC01159668
S11317D0ED91FC911697C681D7818E01045F1F4F4E
S11317E0C8010E94FF0280918F0781111CC00A501A
S11317F01109C8010E94FF028E89909195079817DC
S113180010F48093950790E09C01220F331F220F60
S1131810331F220F331F820F931FB8018353984F36
S11318200E94AD0205C0B8018EEA97E00E94AD02A5
S1131830E091E807F091E9079E898689891720F4E9
S113184081E08093920701C080E0DF91CF911F91E6
S11318500F91089520919107FC0120832091960710
S1131860309197073283218308950FB6F8940F922D
S11318704091960750919707DB012D913C912F3FA2
S1131880BFEF3B0719F1E0919107DC01FC91FE17D2
S113189039F01196ED91FC9112974E175F07C0F441
S11318A0DC011196ED91FC911297DA01AE1BBF0B8E
S11318B0A217B30778F4DB01E41BF50B2E0F3F1FCF
S11318C02D933C930E942A0C80E005C080E003C065
S11318D081E001C081E00F900FBE089581E0809304
S11318E0920708950F931F93CF93DF93FC01892BE5
S11318F009F455C02689A091E807B091E9075696E6
S11319008C91281708F04BC084859585992364F041
S1131910A091E807B091E90756963C9183E090E0E6
S1131920831B91099587848730E0C901880F991F2B
S1131930880F991F880F991F280F391F2353384F79
S1131940828593858217930719F58F01EF012296FB
S1131950CE010E94FF02E091E807F091E907868931
S1131960F801868B90919507981710F4809395074A
S113197090E09C01220F331F220F331F220F331FCD
S1131980820F931FBE018353984F0E94AD0207C07C
S1131990A091E807B091E90756968C91868BDF9168
S11319A0CF911F910F9108950F931F93CF93DF93BE
S11319B0FC01892B79F182A1815082A3268991A10E
S11319C0291751F181112AC0EF018F010E5F1F4FBA
S11319D0C8010E94FF0289A18E8B23E030E0281BFE
S11319E031093D872C8790919507981710F48093BF
S11319F0950790E09C01220F331F220F331F220F03
S1131A00331F820F931FB8018353984F0E94AD0276
S1131A1081E005C080E003C080E001C080E0DF9188
S1131A20CF911F910F9108958091E8079091E90754
S1131A30892B39F0E091E807F091E90782A18F5FE3
S1131A4082A38091E8079091E9070895823000F518
S1131A50E82FF0E0EE0FFF1FE651F84F718360832B
S1131A60882319F0813049F00895E9E6F0E0808197
S1131A708C7F482B4083E89A0895E9E6F0E0808162
S1131A80837F440F551F440F551F482B4083E99A09
S1131A9008951F920F920FB60F9211242F933F9324
S1131AA04F935F936F937F938F939F93AF93BF9362
S1131AB0EF93FF938091EA079091EB07892B29F02C
S1131AC0E091EA07F091EB070995FF91EF91BF913F
S1131AD0AF919F918F917F916F915F914F913F91C2
S1131AE02F910F900FBE0F901F9018951F920F9279
S1131AF00FB60F9211242F933F934F935F936F93DD
S1131B007F938F939F93AF93BF93EF93FF938091B2
S1131B10EC079091ED07892B29F0E091EC07F09107
S1131B20ED070995FF91EF91BF91AF919F918F912F
S1131B307F916F915F914F913F912F910F900FBEC5
S1131B400F901F9018950E94B70D0C94690E0E9477
S1131B50620E58F00E945B0E40F029F45F3F29F0BA
S1131B600C94520E51110C949D0E0C94580E0E941C
S1131B707A0E68F39923B1F3552391F3951B550B12
S1131B80BB27AA2762177307840738F09F5F5F4F4C
S1131B90220F331F441FAA1FA9F335D00E2E3AF08B
S1131BA0E0E832D091505040E695001CCAF72BD0A3
S1131BB0FE2F29D0660F771F881FBB1F26173707F4
S1131BC04807AB07B0E809F0BB0B802DBF01FF2726
S1131BD093585F4F3AF09E3F510578F00C94520EA3
S1131BE00C949D0E5F3FE4F3983ED4F3869577956D
S1131BF06795B795F7959F5FC9F7880F911D9695DF
S1131C00879597F90895E1E0660F771F881FBB1F3A
S1131C10621773078407BA0720F0621B730B840BE7
S1131C20BA0BEE1F88F7E0950895E89409C097FB76
S1131C303EF490958095709561957F4F8F4F9F4F9F
S1131C409923A9F0F92F96E9BB279395F6958795E3
S1131C5077956795B795F111F8CFFAF4BB0F11F4A6
S1131C6060FF1BC06F5F7F4F8F4F9F4F16C088234D
S1131C7011F096E911C0772321F09EE8872F762F83
S1131C8005C0662371F096E8862F70E060E02AF0C4
S1131C909A95660F771F881FDAF7880F96958795B0
S1131CA097F9089597F99F6780E870E060E00895D8
S1131CB09FEF80EC089500240A9416161706180660
S1131CC00906089500240A9412161306140605063C
S1131CD00895092E0394000C11F4882352F0BB0FCD
S1131CE040F4BF2B11F460FF04C06F5F7F4F8F4F30
S1131CF09F4F089557FD9058440F551F59F05F3F6B
S1131D0071F04795880F97FB991F61F09F3F79F019
S1131D1087950895121613061406551FF2CF46959B
S1131D20F1DF08C0161617061806991FF1CF86951D
S1131D307105610508940895E894BB276627772701
S1131D40CB0197F908950E94B60E0C94690E0E9477
S1131D505B0E38F00E94620E20F0952311F00C9473
S1131D60520E0C94580E11240C949D0E0E947A0E5F
S1131D7070F3959FC1F3950F50E0551F629FF001DA
S1131D80729FBB27F00DB11D639FAA27F00DB11DF3
S1131D90AA1F649F6627B00DA11D661F829F22277C
S1131DA0B00DA11D621F739FB00DA11D621F839F03
S1131DB0A00D611D221F749F3327A00D611D231FD9
S1131DC0849F600D211D822F762F6A2F11249F5727
S1131DD050409AF0F1F088234AF0EE0FFF1FBB1F2A
S1131DE0661F771F881F91505040A9F79E3F5105E9
S1131DF080F00C94520E0C949D0E5F3FE4F3983ED9
S1131E00D4F3869577956795B795F795E7959F5F92
S1131E10C1F7FE2B880F911D9695879597F9089524
S1131E20FB01DC0102C001900D9241505040D8F7F3
S1091E300895F894FFCFB1
S1131E36DB05FFFFC8003200C80020012801360177
S1131E46437269746963616C004E6F726D616C00F4
S1131E56536D6F6B653A200054656D7065726174DD
S1131E667572653A20005761746572204C65766513
S1131E766C3A2000536D6F6B652053656E736F72F9
S1131E862048616E646C65720054656D70205365FC
S1131E966E736F722048616E646C6572005761746C
S1131EA665722044657074682053656E736F722082
S1131EB648616E646C65720052656164696E67732D
S1131EC62048616E646C65720074727565006661A3
S10D1ED66C73650049444C4500009C
S9030000FC
